:02000002D0002C
:1040000000400D0094780D00000006000D00050131
:084010000401BD0B00000000DB
:0440180010740D0013
:1040200009480A49884208B505D0094A824202D0A7
:10403000121A03F0E7F80748074A0021121A03F0A2
:1040400009F9014808BD00BFCCE40320EC770D005E
:104050004CE503204CE50320F0E7032070B5074E44
:10406000074C01F0D3FBA41BA4080025A54200D1F6
:1040700070BD56F8043B98470135F7E7B8770D0057
:10408000DC770D0000F026B808B500F053FBBDE862
:10409000084001F07DBB01F023B801F021B801F028
:1040A00027B80078B0FA80F0400970470123037008
:1040B000704710B5036804469B689847A368013BA6
:1040C000A3602BB923682046DB68BDE81040184781
:1040D00010BD000038B501F03BFF4FF4614101F025
:1040E0002BFF02F007F84FF4165101F0FFFF1B4BB6
:1040F0001B4D1A681B4B1A601B4B0021188802F0DD
:1041000069F91A4B0221188802F064F9184B002152
:10411000188802F05FF9174B0121188802F05AF94C
:10412000154B0121188802F055F9144A0023137029
:10413000134A1370134A4FF4FA7413702C6000F092
:1041400043FE114B114A18602B6803441360104B57
:104150001C60104B2044186038BD00BFE4E403200D
:1041600008E603203CE60320D4E40320D0E4032047
:10417000DCE40320CCE40320D8E403200DE6032094
:104180000CE60320CCE5032018E6032014E6032008
:1041900004E6032010E6032038B50F4C0F4D01F064
:1041A000A9FF03681B699847A0B101F0A3FF03684A
:1041B0005B699847C1B2204600F024FD0028EED08C
:1041C00000232A460649204600F082FD054B0122C5
:1041D0001A70E4E738BD00BF54E50320FCE5032076
:1041E000D0E50320CCE5032008B501F0B1FE044979
:1041F00001F03EFA034B4FF47A721A6008BD00BF1B
:1042000024740D0008E60320F0B5524F524E534B74
:104210003B609DB0524B534933600446684601F001
:1042200000F95149514D18A801F0FBF8504B0A22F2
:10423000196814A801F035F914A918A801F075F946
:10424000294601F07EF9014604A801F00DF914A8F1
:1042500001F09CF818A801F099F8464918A801F057
:10426000E0F897ED000A062114A801F02DF914A931
:1042700018A801F05AF9294601F063F9014608A887
:1042800001F0F2F814A801F081F818A801F07EF806
:10429000394918A801F0C5F896ED000A062114A8BE
:1042A00001F012F914A918A801F03FF9294601F00C
:1042B00048F901460CA801F0D7F814A801F066F8F7
:1042C00018A801F063F82D4918A801F0AAF80A22ED
:1042D000002114A801F0E5F814A918A801F025F9A7
:1042E000014610A801F0C0F814A801F04FF818A872
:1042F00001F04CF8224918A801F093F8694618A873
:1043000001F013F904A901F010F908A901F00DF961
:104310000CA901F00AF910A901F007F9194901F0F7
:1043200010F90146204601F09FF818A801F02EF878
:1043300010A801F02BF80CA801F028F808A801F04B
:1043400025F804A801F022F8684601F01FF820467D
:104350001DB0F0BDD0E50320FCE5032074B4154288
:10436000DF57F4C233740D0041740D003F740D002B
:1043700000E6032052740D005C740D0067740D009C
:104380007B740D007D740D0070B50368044663B145
:10439000436A45691E1DAE4204D955F8040BFFF768
:1043A0007EFEF8E72068FFF77AFE204670BD000029
:1043B0002DE9F8430F46426A41690446D0E90630C8
:1043C000561AB510181A6B1E5B0103EB201CA3686C
:1043D0002069C01A0CEB20136FF07840834202D1A1
:1043E000354802F097F8D4E900C3A2EB0C00A3EB28
:1043F000A00001281ED80235B3EB450F36D95D1B4E
:104400006D080CEB8505131DA942A3EB010227D90A
:10441000994202D0284602F003FF65612B68E360F1
:1044200003F500732361AB196362AB59E36103F5D4
:10443000007323624FF40070656AFFF72CFE68601A
:10444000A06910B1394601F00FF8636A1A1D626263
:104450005B68E36103F500722262A361BDE8F88343
:104460009942DAD0301D801A2844D4E703F10208BB
:10447000012B2CBF984408F10108B8F1005F01D36B
:1044800002F045F84FEA8800FFF705FE626A6169AD
:10449000A8EB050504326D089142814600EB8505C5
:1044A00003D0521A284602F0BBFE2068FFF7F7FD42
:1044B000C4E90098B1E700BF7F740D00F0B58DB07E
:1044C00004A8FFF7A1FE404B404C01221A70404B5C
:1044D00000225868114600F093FD002832D13D4D6E
:1044E0003D4E3E4FA168A3698B4254D008A800F00E
:1044F000BBFF2369A068103B98423ED000F046FF06
:10450000A3681033A36001F023FD314601F0C3F826
:1045100001F01EFD089901F0BEF82B788DF80030EF
:1045200002A8089A3C23394601F0C8FA039828B13A
:104530004368013B43600BB9FFF7BBFD08A800F0DF
:1045400025FFCFE701F004FD254901F0A4F8236A17
:10455000A069103B98420BD010B104A900F084FF71
:10456000A3691033A36104A800F010FF0DB0F0BDE3
:1045700004A92046FFF71CFFF5E700F007FFE068FD
:10458000FFF78DFD63691A1D62615B68E36003F5E7
:1045900000722261B6E701F0DBFC049901F07BF8C0
:1045A0002B788DF8003008A8049A0C493C2301F0C0
:1045B00085FA09980028D6D04368013B4360002B58
:1045C000D1D1FFF776FDCEE7CCE50320D4E503207B
:1045D00070E6032050E50320DE740D00F8740D0032
:1045E000AF740D0037B501F0B3FC1849184C01F059
:1045F00052F8184B47F230521A60174B188801F0E6
:1046000026FF642320604FF4FA62009340F698512D
:10461000002301F07BF8206001F09AFC2468002C54
:10462000054611DA2D2101F027F861420A222846B9
:1046300001F03BF8284601F022F8FFF7ADFD03B08A
:10464000BDE83040FFF73ABF2146EFE700750D00A7
:1046500000E6032008E60320D4E4032008B501F0B7
:1046600077FC064901F017F8054B47F230521A6003
:10467000FFF792FDBDE80840FFF720BF0F750D0062
:1046800008E60320F8B5224B224E1888224C01F090
:10469000CBFE224B054610BB1888012101F0ABFE72
:1046A0003088294601F0A7FE25701D4D1D4F2B684F
:1046B000386822781C4E834202D2337893420DD060
:1046C000012A1ED0022A1FD00AB9FFF78DFD174A12
:1046D0002378126833702B6813443B60F8BD188848
:1046E000002101F088FE3088012101F084FE104B8A
:1046F000188801F099FE10B901232370D5E7022331
:10470000FBE7FFF76FFFE2E7FFF7A8FFDFE700BF78
:10471000DCE40320CCE403200DE60320D8E40320EE
:1047200018E6032014E603200CE6032008E6032025
:10473000D0E4032038B5084C084D00F045FB236851
:104740002860834206D8FFF79DFF054A2B68126850
:104750001344236038BD00BF10E6032018E6032091
:1047600004E6032038B504460D46AC4204D020468A
:1047700000F00CFE1034F8E738BD2DE9F04F00F1E1
:10478000080306460FCB91B06D4685E80F0006F191
:1047900018030FCB04AC84E80F0095E80F0008AFB6
:1047A00087E80F0094E80F0010AC04E90F00DDE982
:1047B0000AB9DDE90C7A089DDDF83C8009F10404B2
:1047C000444506D254F8040B00F50071FFF7CAFF08
:1047D000F6E7C1450ED059462846FFF7C3FF3946D4
:1047E0005046FFF7BFFF3046FFF7CEFD304611B011
:1047F000BDE8F08F39462846F3E710B50446FFF7C9
:10480000BCFF204610BD0000F8B51A4B1A4C1B48DF
:1048100001221A7000F038F80023C4E90233C4E919
:104820000433C4E90633C4E9083323602020082395
:104830006360FFF730FC65682060013D6D0800EBA8
:10484000850706464FF40070FFF725FC00F500735E
:10485000C4E9070346F82500E060A060A061676135
:10486000236167622046064A0649BDE8F84001F028
:1048700045BE00BF50E50320D4E5032054E50320E6
:104880004CE50320FB470D0010B50F490161816124
:10489000016281620163FF2100224FF0FF34A0F822
:1048A00040100221C0E91B220460826084634464DA
:1048B000C46480F86510A0F8662080F86820A0F82D
:1048C000542080F8562010BDFFC99A3BA1F1410346
:1048D000052B02D8A1F137007047A1F16103052B28
:1048E00094BFA1F15700A1F13000704710B5013914
:1048F00000200A2211F8013FA3F13004092C03D84B
:1049000002FB00303038F5E710BD38B590F856504E
:104910002D2D14BF00F1560400F157042146FFF776
:10492000E5FF64235843224614F8013BA3F130010C
:104930000929F8D92E2B0DD15378303BD9B209294A
:1049400008D80A2101FB03009378303BDAB2092A28
:1049500098BFC0182D2D08BF404238BD70B500F17A
:1049600056042146FFF7C2FF6422B0FBF2F302FBBC
:104970001302124B53432278A2F13005092D214630
:1049800004F10104F7D92E2A0DD142F210740A2540
:1049900011F8012F303AD6B2092E04D804FB0233A5
:1049A000B4FBF5F4F4E764220333B0FBF2F0062223
:1049B000B3FBF2F3024A02FB003070BDA086010097
:1049C00040420F000139013A11F8010F18B112F8F5
:1049D000013F8342F8D0704737B590F855500446F0
:1049E000002D46D090F85610FFF770FF94F857103E
:1049F00002462046FFF76AFF94F8543000EB02109D
:104A0000C0B283422ED194F86850CDB1B4F8703062
:104A10000133A4F87030A36C6364236DE36494F8ED
:104A2000653083B1012B0BD163682360E368A36019
:104A300063692361E369A361E36AA362636B236330
:104A4000284603B030BD636A2362636823606369EC
:104A50002361E369A361B4F84230A4F84030E36B0A
:104A6000A363EDE7B4F872300133A4F87230002587
:104A7000E6E790F86620AAB900F156015F4A019175
:104A8000FFF7A0FF019918B9012384F86530D7E733
:104A90005B4A2046FFF796FF10B984F86550CFE7D0
:104AA0000223F2E790F865100229C9D090F8563039
:104AB000002BC5D042EA4112013A282AC0D801A1F0
:104AC00051F822F0694B0D00854B0D00934B0D0002
:104AD000A14B0D00A94B0D00D34B0D00DD4B0D007C
:104AE000EB4B0D00F34B0D00414A0D00414A0D0008
:104AF000414A0D00414A0D00414A0D00414A0D0056
:104B0000414A0D00414A0D00414A0D00414A0D0045
:104B1000414A0D00414A0D00414A0D00414A0D0035
:104B2000414A0D00414A0D00414A0D00414A0D0025
:104B3000414A0D00414A0D00414A0D00414A0D0015
:104B4000414A0D00694B0D00774B0D00854B0D0060
:104B5000934B0D00A14B0D00A94B0D00B74B0D0061
:104B6000BF4B0D00C74B0D00FFF7CFFE606000F09C
:104B70002BF9A06464E7A3F141025342534184F846
:104B800068305DE7FFF7EAFE606100F01DF920651F
:104B900056E7532B7FF454AF43695B4243614FE7C1
:104BA000FFF7DCFEE0614BE7572B7FF449AFC369A9
:104BB0005B42C36144E7FFF7A8FEE06240E7FFF70E
:104BC000A4FE60633CE700F15601FFF78FFEE06052
:104BD00036E7302B94BF00230123D0E7563002F094
:104BE000FFFAC0B2A4F842002AE7FFF78EFEE063A6
:104BF00026E7FFF78AFE606222E700BF1B750D0003
:104C000021750D0038B5C36E242903F10103044654
:104C10000D46C3663AD090F8673014D80A291CD0E4
:104C20000D291AD00D2B9FBF5A1C1B1984F8672021
:104C300083F8565094F8550098BB94F854104D40A2
:104C400084F8545021E02A2907D02C29EAD190F881
:104C5000542082F02C0280F854200E2B4FF00000DC
:104C600005D8234483F856002046FFF7B5FE94F894
:104C70006630013384F86630002384F86730A5F18C
:104C80002A035D425D4184F8555038BD002002235F
:104C9000A4F8540084F86530A4F8660084F868002D
:104CA000F3E70020F1E738B504461D4609B1036972
:104CB0000B600AB1A36913603DB1E06C431C03D0E3
:104CC00000F082F8E36CC01A286038BD00000000D4
:104CD000F7B50F461546694601AAFFF7E4FF144CE5
:104CE000009EA64219D0304601F06CFD0EA3D3E918
:104CF000002301F0FBFE02F089F8A64238600ED0D6
:104D0000019801F05FFD08A3D3E9002301F0EEFE56
:104D100002F07CF8286003B0F0BD0648EDE70548D6
:104D2000F8E700BFAFF300800000000080842E4150
:104D3000FFC99A3B00007A4408B5024B1B689B6888
:104D4000019308BD6802030008B5024B1B68DB68CD
:104D5000019308BD6802030008B5024B1B685B683D
:104D6000019308BD2C02030008B5024B1B689B6829
:104D7000019308BD2C02030008B5024B1B68DB68D9
:104D8000019308BD2C02030008B5024B1B681B6988
:104D9000019308BD2C02030008B5024B1B685B6938
:104DA000019308BD2C02030008B5024B1B681B6B66
:104DB000019308BD2C02030008B5024B1B685B6819
:104DC000019308BD1802030008B5024B1B685B691C
:104DD000019308BD1802030008B5024B1B685B6C09
:104DE000019308BD4802030008B5024B1B689B6C89
:104DF000019308BD4802030008B5024B1B685B69BC
:104E0000019308BD6402030008B5024B1B681B68D0
:104E1000019308BD3C02030008B5024B1B68DB6828
:104E2000019308BD3C02030008B5024B1B681B69D7
:104E3000019308BD3C02030008B5024B1B685B6987
:104E4000019308BD3C02030008B5024B1B689B6937
:104E5000019308BD3C02030008B5024B1B68DB69E7
:104E6000019308BD3C02030008B5024B1B681B6A96
:104E7000019308BD3C02030008B5024B1B689B6A06
:104E8000019308BD3C02030008B5024B1B68DB6AB6
:104E9000019308BD3C02030008B5024B1B681B6A66
:104EA000019308BD2802030008B5024B1B685B6A2A
:104EB000019308BD2802030008B5024B1B689B6ADA
:104EC000019308BD2802030008B5024B1B68DB6A8A
:104ED000019308BD2802030008B5024B1B681B6B39
:104EE000019308BD2802030008B5024B1B685B6BE9
:104EF000019308BD2802030008B5024B1B681B6C18
:104F0000019308BD2802030008B5024B1B68DB694A
:104F1000019308BD3002030008B5024B1B681B6AF1
:104F2000019308BD3002030008B5024B1B681B68E3
:104F3000019308BD4C02030008B5024B1B685B6877
:104F4000019308BD4C02030008B5024B1B681B69A6
:104F5000019308BD4C02030008B5024B1B685B6956
:104F6000019308BD4C02030008B5024B1B689B6906
:104F7000019308BD4C02030008B5024B1B68DB69B6
:104F8000019308BD4C02030008B5024B1B681B6A65
:104F9000019308BD4C02030008B5024B1B685B6817
:104FA000019308BD2002030008B5024B1B68DB6CAF
:104FB000019308BD2002030008B5024B1B685B6D1E
:104FC000019308BD2002030008B5034B1B68D3F80A
:104FD0008830019308BD00002002030008B5034B90
:104FE0001B68D3F89430019308BD00002002030031
:104FF00008B5024B1B685B68019308BD40020300C3
:1050000008B5024B1B689B68019308BD4002030072
:1050100008B5024B1B68DB68019308BD4002030022
:1050200008B5024B1B681B69019308BD40020300D1
:1050300008B5024B1B685B69019308BD4002030081
:1050400008B5024B1B689B69019308BD4002030031
:1050500008B5024B1B68DB69019308BD40020300E1
:1050600008B5024B1B681B6A019308BD4002030090
:1050700008B5024B1B681B6B019308BD400203007F
:1050800008B5024B1B685B6B019308BD400203002F
:1050900008B5024B1B681B6C019308BD400203005E
:1050A00008B5024B1B685B6C019308BD400203000E
:1050B00008B5024B1B685B69019308BD44020300FD
:1050C00008B5024B1B681B6A019308BD440203002C
:1050D00008B5024B1B68DB6B019308BD440203005B
:1050E00008B5024B1B681B68019308BD1C02030036
:1050F00008B5024B1B685B68019308BD1C020300E6
:1051000008B5024B1B689B68019308BD1C02030095
:1051100008B5024B1B68DB6A019308BD1C02030043
:1051200008B5024B1B681B6B019308BD1C020300F2
:1051300008B5024B1B685B6C019308BD1C020300A1
:10514000002240681146FFF78BBF002240681146DD
:10515000FFF796BF40680022FFF78ABF4068002231
:1051600081F00101FFF774BF002340681A46194619
:10517000FFF766BF002340681A461946FFF758BF7D
:10518000002240681146FFF74BBF002240681146DD
:10519000FFF736BF406800220221FFF739BF002326
:1051A00040681A46FFF724BF024B03225A60024AA6
:1051B0001A6070471CE6032030750D0010B50446D8
:1051C00008462170FFF7A0FE00236360204610BD53
:1051D00010B50446006818B1FFF78AFF002323606A
:1051E00010BD10B50446FFF7F3FF204610BD0000C8
:1051F00010B5094B094C022200201A60084B2060B0
:10520000A080A071A360FFF7C7FE2046054A0649AB
:10521000BDE8104001F072B930E6032024E6032017
:105220000000FFFF4CE50320E3510D0010B50446DC
:1052300002F061F8013823182046834206D902782B
:10524000197800F8011B03F80129F6E710BD70B5C5
:105250000C46911E2229054622D820466DB1B5FB89
:10526000F2F602FB1655E9B2092D94BF30315731E1
:10527000C9B200F8011B3546F0E70246234430214D
:10528000934202D902F8011BFAE71A1A834238BF87
:105290000022002383542046FFF7C8FF204670BD3C
:1052A0000020FCE738B5031E0C4615460EDAB3F1B4
:1052B000004F4FF02D0214BF5842184601230A70C8
:1052C0002A461944FFF7C3FF204638BD0123F9E7FA
:1052D0002DE9F04757EC106B80460C4610EE100A93
:1052E00000220023394601F049FD28B107F10043AF
:1052F0001F462D2304F8013B00234FF001090A2229
:10530000D9B2884503D902FB09F90133F8E74846C9
:1053100001F058FA32463B4601F0BEFA06460F4607
:1053200001F0DCFD05468A4601F080FA02460B4694
:105330003046394601F0F8F8134B002201F032FDF7
:1053400010B101354AF1000A4A462846D3175146A2
:1053500001F0ACFD0123154621460A22FFF777FF35
:10536000B8F1000F0DD0204601F0C5FF2E23211803
:1053700023540A22434628460131BDE8F047FFF78F
:1053800066BFBDE8F08700BF0000E03F10B50446EF
:105390000068FFF7ADFE204610BD10B5044600685A
:1053A00008B1FFF7A5FE0023C4E90133236010BD57
:1053B00038B504460D4600680131FFF7A1FE10B173
:1053C000C4E90005012038BD10B50368044623B1C7
:1053D00043688B4201D3012010BD2046FFF7E8FF50
:1053E0000028F9D0A368002BF5D122681370F2E7EA
:1053F00037B50D46114601920446FFF7E5FF019AC5
:1054000028B92046FFF7C9FF204603B030BDA2608F
:105410002946206801F0F6FE2268A3680021D154D5
:10542000F2E7002313B5C0E9003304468360037339
:1054300041B10846019101F05EFF01990246204604
:10544000FFF7D6FF204602B010BD884210B50446D3
:1054500005D00B682BB18A681946FFF7C9FF2046B3
:1054600010BDFFF79AFFFAE710B500230446C0E924
:10547000003383600373FFF7E8FF204610BD13B5C8
:10548000044659B10846019101F035FF01990246E1
:105490002046FFF7ADFF204602B010BDFFF77DFFAD
:1054A000F9E710B504468AB00023C4E90033A360CD
:1054B0002373084601A9FFF7F5FE01A92046FFF76F
:1054C000DEFF20460AB010BD30B5044600238BB085
:1054D000C4E90033A360237310EE100ACDB201F0CB
:1054E00083F941EC100B01A92846FFF7F1FE01A951
:1054F0002046FFF7C4FF20460BB030BD70B505460F
:105500000E4609B9002070BD6AB184681444214672
:10551000FFF75AFF0028F5D02868AB6831461844D9
:1055200001F0C4FEAC600120EDE710B58A6809689F
:105530000446FFF7E3FF10B92046FFF72EFF204691
:1055400010BD13B5044629B92046FFF726FF2046B3
:1055500002B010BD0846019101F0CDFE019902464E
:105560002046FFF7CBFF0028EED0F0E710B5036828
:1055700004469B689847A368013BA3602BB9236846
:105580002046DB68BDE81040184710BD10B5044642
:10559000006808B1FFF728FC204610BD10B58368ED
:1055A000044613B1032201469847204610BD0B68FC
:1055B000036013B15A6801325A60704710B504464F
:1055C000006828B14368013B43600BB9FFF7CEFF89
:1055D000204610BD13B50B460246D0E900016C46CB
:1055E00084E8030093E8030082E8030094E80300E2
:1055F00083E8030002B010BD10B5064C002320461E
:105600002360FFF7E9FB2046034A0449BDE8104048
:1056100000F074BF34E603204CE503208D550D00E7
:10562000F8B506460D468F180024BD420CD03368ED
:1056300015F8011B9B6830469847031E01DB1C448C
:10564000F3E7002C08BF1C462046F8BD13B50446FE
:10565000084659B1019101F04EFE23680199DB68BB
:105660000246204602B0BDE81040184702B010BD07
:1056700008B5FFF7EBFF08BD03689B68184738B50E
:105680000D210546FFF7F8FF0A2104462846FFF7DB
:10569000F3FF204438BD38B50546FFF7D7FF044671
:1056A0002846FFF7ECFF204438BD30B58BB000230F
:1056B0008DF82430012A98BF0A2209AC0D46B1FBAF
:1056C000F2F101FB125303F0FF03092B94BF3033B7
:1056D0003733DBB2AA4204F8013DEFD92146FFF788
:1056E000B5FF0BB030BD0000014B024A1A60704795
:1056F00038E6032064750D00024B1A68024B1A60ED
:10570000704700BFE0E403203CE603208A4210B566
:1057100007D0029C401AE41A6043521A90FBF2F040
:10572000184410BD10B50446FFF738FF204610BDE1
:105730000348044A04490023836000F0DFBE00BF31
:1057400040E603204CE5032025570D00014B18606F
:10575000704700BFE8E4032008B50B4B43B100F0ED
:10576000F7FB03681B699847002801DDAFF3008051
:10577000064B43B100F0BEFC03681B699847002844
:1057800001DDAFF3008008BD000000000000000054
:1057900008B5FFF7E1FFFFF717FB014B186008BDE5
:1057A000D4E703200248034A0349121A01F02ABD34
:1057B00000F4032004F40320E8770D0007B500236C
:1057C00000931A466FF07701FFF708FC03B05DF80D
:1057D00004FB000007B543880A2B08D0502B0BD1DF
:1057E000094B1B684BB103B05DF804EB1847FFF79A
:1057F000E5FF03B05DF804FB002300931A466FF049
:105800007701FFF7EBFBF4E754E6032038B5124CC1
:105810001248134D0021FFF78BFC2368AB42114B5C
:105820000CBF012200221A7002D0FFF7BBFF2560D7
:10583000FFF7C2FA044601F015FD0B4B13B12046E9
:10584000AFF3008000210848FFF742FCBDE8384074
:1058500006480021FFF7B8BB00F403204D570D00A8
:105860001E1C279A50E6032000000000D5570D00AB
:1058700070470020704710B51021044600F043FE29
:10588000204610BD08B5FFF7F6FF08BD30B5002271
:105890004FF69C74026084808D888C800C688580B3
:1058A00004600A6030BD10B504460068FFF720FCB4
:1058B000204610BD38B5C468F4B12378022B03D15B
:1058C00004F10C00FFF7EFFF656835B12846FFF7DC
:1058D00065FE1021284600F016FEA56835B1284661
:1058E000FFF75CFE1021284600F00DFE2046142133
:1058F000BDE8384000F007BE38BD73B50E4604461B
:1059000056F8043B00930D4601A83146FFF74FFEC1
:10591000019A009B6260236001A800230193009319
:10592000FFF74CFE3046FFF749FE2846082100F0FD
:10593000EAFD204602B070BD826810B50AB900F0D9
:10594000ECFDBDE81040C368184708B5006800F1D9
:105950001001FFF7F1FF08BD826810B50AB900F029
:10596000DCFDBDE81040C368184708B5006800F1C9
:105970001001FFF7F1FF08BD38B5002304460360AE
:1059800010200D46FEF787FB28B10123C0E9013343
:10599000024B0360C5602060204638BD8C750D0049
:1059A00038B5002383608B6804460D462BB1022274
:1059B0009847EB68E360AB68A360204638BD000001
:1059C000F0B589B004686846FFF760FF4FF0020346
:1059D000D4E84F2F002A03D1C4E8413F0029F7D172
:1059E00025D104F10C0569462846FFF74FFFBFF3A8
:1059F0005B8F01236370002004F10803BFF35B8F0A
:105A000053E8006F43E80002002AF9D1BFF35B8F2F
:105A10006EB1FFF7C9FA78B129463046FFF78CFF1F
:105A20003046FFF7BBFD1021304600F06CFD6846A4
:105A3000FFF739FF09B0F0BD314602A8FFF7B0FF0C
:105A4000E068B4F9105008B101F038FC069010205D
:105A5000ADF81C50FEF71FFB0546E8B10027876034
:105A60001820FEF718FB044688B10146876002A89B
:105A7000FFF7B0FD049BA268A360059B049206A9F2
:105A8000E268E36004F110000592FFF7FFFE084BA7
:105A9000EB60084B2C60AB6006A8FFF704FF02A880
:105AA000FFF77CFD002229460348FFF785FAB7E798
:105AB0004B590D00E15B0D0049610D002DE9F047E8
:105AC0008AB005469DF848900C4617469846FFF761
:105AD000EFFA07AE824638BB4FF62E73059005A944
:105AE0003046ADF81830FFF7D1FE1420FEF7D3FA98
:105AF000044648B1022303700123C0E901AA4370A0
:105B000031460C30FFF7C2FE2846214640F8044BD0
:105B1000FFF732FF3046FFF7C6FE05A8FFF7C3FECA
:105B200028460AB0BDE8F0870C234FF0000A142085
:105B3000CDE908AA0793FEF7AEFA014628B1C0E9FD
:105B400001AA80F800A080F801A004A80391FFF743
:105B500013FF224B08930820FEF79DFA824628B1D6
:105B6000039B40F8043B04A9FFF721FD00965FFA70
:105B700089F3424639462046CDF824A0FFF7A0FA23
:105B8000B8B9039B5B7803F0FF0293B94FF69C739F
:105B900005A903A80592ADF81830FFF711FF05A875
:105BA000FFF781FE05A80999FFF7A7FE06A8FFF7F2
:105BB00005FD039B059304A906A8FFF7F8FC059BC8
:105BC000069A2B606A60002306A806930593FFF7E8
:105BD000F5FC04A8FFF7F2FCA2E700BFA55C0D00EE
:105BE000022AF8B5054607D0032A18D0012A01D1A8
:105BF0000B6803600020F8BD18200E68FEF74BFA12
:105C0000044650B13146FFF7CBFE3069B6F9147047
:105C100008B101F053FB2061A7822C60EAE7046819
:105C2000002CE7D004F11000FFF73DFE2046FFF7FF
:105C3000B5FC1821204600F066FCDBE738B50023F0
:105C400083608B6804460D462BB102229847EB68AF
:105C5000E360AB68A360204638BD022A70B50446F5
:105C600007D0032A12D0012A01D10B68036000205B
:105C700070BD14200E68FEF70EFA054620B13146BD
:105C8000FFF7DCFF337C2B742560F0E70468002C01
:105C9000EDD02046FFF782FC1421204600F033FCB3
:105CA000E5E70000F0B589B004460D4601A81146AD
:105CB000FFF723FEA4B124B21DB1284601F0FEFA7D
:105CC000054601A803A90395ADF81040FFF778FE3B
:105CD00003A8FFF7E8FD02A8FFF770FC09B0F0BDCC
:105CE000019D0123D5E84F2F002A03D1C5E8413F8C
:105CF0000029F7D1EFD12B73BFF35B8F6B702B1D96
:105D0000BFF35B8F53E8006F43E80042002AF9D1EC
:105D1000BFF35B8F002EDED02046FFF745F9074624
:105D200060B105F10C013046FFF716FE3046FFF773
:105D300035FC1021304600F0E6FBCCE7314603A8E5
:105D4000FFF77CFF2B7B8DF81C301020FEF7A3F9AA
:105D50000546D0B187601420FEF79DF9044678B15E
:105D60008760014603A8FFF735FC059BA268A36086
:105D7000069B0592E268E3609DF81C30069223744E
:105D8000064BEB60064B2C60AB6003A8FFF706FCEC
:105D9000002229460348FFF70FF9C7E76B590D00AA
:105DA0005B5C0D0049610D00704710B51821044679
:105DB00000F0A9FB204610BDF0B5037D062B8DB089
:105DC0000E4600F104074FF0000412D000F1080560
:105DD00015F8011D0A223046FFF767FCAF42044464
:105DE00019D0002CF4D02E213046FFF745FC044496
:105DF000EEE72F236A4639460A208DF80040FEF769
:105E0000FBFF684601F077FA33680246DB686946B3
:105E100030469847044620460DB0F0BD10B5054BFE
:105E20000446112240F8043B002101F013FA2046F9
:105E300010BD00BFA8750D000346074A10B543F812
:105E4000042B01F1100251F8044B43F8044B91422A
:105E5000F9D10A781A7010BDA8750D0010B59DF81B
:105E6000084044EA032343EA024242EA0161042370
:105E70004160037510BD000013B5054B0360CB787E
:105E800000938B784A780978FFF7E8FF02B010BDDD
:105E9000A8750D0041747047704708B50021007C5B
:105EA000FFF762F840EAE07008BD08B50121007C08
:105EB000FFF75AF840EAE07008BD08B5007CFFF72C
:105EC0004BF820EAE07008BD08B5007CFFF73CF80D
:105ED00020EAE07008BD13B50446007C0191FFF78D
:105EE0003BF80028019901DC607C20B1207CFFF7A1
:105EF00043F820EAE07002B010BD007CFFF744B820
:105F000010B51421044600F0FEFA204610BD000032
:105F100010B54FF47A73044608460021C4E9011312
:105F2000044B23600123207463741146FEF7FCFFC9
:105F3000204610BDBC750D00007C0022FEF7FCBFA2
:105F400010B514220446002101F084F9204610BD4A
:105F500010B5104C88B003A8FFF7F2FF2178BFF30B
:105F60005B8F11F0010111D120460191FEF799F8E4
:105F7000019958B103AA0848FFF7CAFF2046FEF767
:105F800095F8064A0649044800F0B8FA024808B0F5
:105F900010BD00BF58E603205CE603204CE503205B
:105FA000995E0D00002240681146FFF739B80022C3
:105FB00040681146FFF754B8002240681146FFF7C9
:105FC0005FB840680022FFF753B84068002281F0B4
:105FD0000101FFF73DB8002340681A461946FFF754
:105FE0002FB8002340681A461946FFF721B800224F
:105FF00040681146FFF704B8406800220221FFF70D
:1060000007B8002340681A46FEF7F2BF084B10B5E8
:10601000282422461846002101F01CF9054B048073
:106020004FF0FF32426004225A60034A1A6010BDEA
:1060300078E6032070E60320EC750D00704741748C
:10604000704708B5007CFEF717FF20EAE07008BD36
:1060500008B5007CFEF7E8FE20EAE07008BD08B550
:10606000007CFEF7F1FE40EAE07008BD08B5007C58
:10607000FEF7E2FE40EAE07008BD007CFEF7ECBEF1
:1060800037B5457C04462DB1207C03B0BDE83040D7
:10609000FEF7C2BE007C0191FEF7EEFE00280199DA
:1060A000F2DC284603B030BD10B51421044600F0E0
:1060B0002AFA204610BD000010B54FF0000C04462F
:1060C000084611464FF47A72C4E901C2044A2260BC
:1060D0000122207462741A46FEF796FE204610BD17
:1060E00028760D00007C0023FEF7CEBE0022FFF7CD
:1060F000F9BF000013B50E4C2178BFF35B8F11F090
:10610000010112D120460191FDF7CBFF019960B149
:10611000084A094B0948FFF7CFFF2046FDF7C6FFA5
:10612000074A0849054800F0E9F9044802B010BDE3
:10613000A0E60320A4E6032028E70320ACE7032021
:106140004CE503203D600D0010B5836804460BB993
:1061500000F0E3F9C3689847A3681BB10322214606
:106160002046984720461021BDE8104000F0CBB9EA
:106170007047F8B5064615460C468F18BC4206D047
:10618000336814F8011B9B6830469847F6E72846A9
:10619000F8BD007C0022FEF77FBE007C0021FEF7E8
:1061A00083BE007C0021FEF787BE007C0021FEF745
:1061B0008BBE007C0021FEF78FBE10B51421044673
:1061C00000F0A1F9204610BD10B54FF47A730446D3
:1061D00008460021C4E90113034B236020741146D3
:1061E000FEF78AFE204610BD58760D000023406859
:1061F0001A46FEF7FDBE406800220221FEF708BFE6
:10620000002240681146FEF7FBBE0022406811469E
:10621000FEF706BF002340681A461946FEF708BF7E
:10622000002340681A461946FEF70ABF406800215D
:10623000FEF72EBF40680021FEF732BF4068002203
:1062400081F00101FEF704BF40680022FEF710BF95
:10625000002240681146FEF713BF00224068114635
:10626000FEF7FEBE2DE9F043002495B016460D461C
:106270000746FFF7D3FD214618220EA8009400F030
:10628000E9FF4023CDE90C3421466B460CAA304689
:10629000FEF75AFD044600284CD1024601216868E9
:1062A000FEF7BEFE0221804622466868FEF7B8FE71
:1062B000009E81462146002E3CD000293AD17368C9
:1062C000022B03D00A2B11D0F669F4E7B8F1000FC6
:1062D0000AD0716906A8043107ADFFF7CDFD0FCDD7
:1062E0003C1D0FC42B6823704146EDE7B9F1000F48
:1062F00001D14946E8E77469102201A800F0AAFF1D
:1063000006238DF8143001AD04F108031834186821
:1063100059682A4603C20833A3421546F7D101A99A
:1063200006A807ADFFF788FD0FCD3C1D0FC42B68F5
:106330002370DEE70098FEF7FFFC384615B0BDE895
:10634000F0830000024B034A1A6000225A60704733
:10635000C0E7032080760D00232813B502D9002062
:1063600002B010BDA0F10B03022B1AD8174C2178F4
:10637000BFF35B8F11F001010BD120460191FDF7B6
:1063800090FE019928B11248FEF718FF2046FDF74C
:106390008DFE0F4B1878FEF7BFFD0028DFD10120DE
:1063A000DEE7012809D800F081F80021007CFEF723
:1063B0009BFD80F00100C0B2D2E709380128EED879
:1063C000FFF798FE007CFEF74FFDF2E7C8E70320D9
:1063D000CCE70320232838B504460D460AD8FF2908
:1063E00008D0FFF7B9FF28B129462046BDE838405C
:1063F000FEF7BABC38BD38B504460D46FEF7BCFC06
:10640000FF2810D0062804D84D2323FA00F0C30734
:1064100009D42046FFF7A0FF28B129462046BDE851
:106420003840FEF7B1BC38BD10B50446FEF7A4FCF9
:10643000031FDBB2012B08D92046FFF78DFF20B1E7
:106440002046BDE81040FEF7A7BC002010BD0D2877
:1064500010B504469CBF0E34A4B22046FFF77CFF63
:1064600050B103212046FEF777FC032804D12046D3
:10647000BDE81040FEF798BC002010BD38B50023E1
:106480002025438014230446038085600561064966
:10649000284600F03AF804496060284600F035F8D4
:1064A000E060204638BD00BFB4760D0030B50F4D1A
:1064B0002978BFF35B8F11F0010487B013D1284610
:1064C000FDF7EFFD78B101A8FFF7D8FF01AA21463B
:1064D0000748FFF779FE2846FDF7E8FD054A06491B
:1064E000034800F00BF8024807B030BDD8E703209E
:1064F000DCE703204CE5032071610D000B460146EB
:10650000184600F071BEFDF7CABDFDF7C6BD08B55F
:10651000FEF7FEFD08B5FEF7FBFD08B5FEF7F8FD3A
:1065200081F0004102E000BF83F0004330B54FEA44
:1065300041044FEA430594EA050F08BF90EA020FB1
:106540001FBF54EA000C55EA020C7FEA645C7FEA44
:10655000655C00F0E2804FEA5454D4EB5555B8BF67
:106560006D420CDD2C4480EA020281EA030382EAD8
:10657000000083EA010180EA020281EA0303362D6A
:1065800088BF30BD11F0004F4FEA01314FF4801C3D
:106590004CEA113102D0404261EB410113F0004F4F
:1065A0004FEA03334CEA133302D0524263EB430306
:1065B00094EA050F00F0A780A4F10104D5F1200EA4
:1065C0000DDB02FA0EFC22FA05F2801841F10001FF
:1065D00003FA0EF2801843FA05F359410EE0A5F1D3
:1065E00020050EF1200E012A03FA0EFC28BF4CF004
:1065F000020C43FA05F3C01851EBE37101F00045BA
:1066000007D54FF0000EDCF1000C7EEB00006EEBC6
:106610000101B1F5801F1BD3B1F5001F0CD3490850
:106620005FEA30004FEA3C0C04F101044FEA4452A7
:1066300012F5800F80F09A80BCF1004F08BF5FEA2E
:10664000500C50F1000041EB045141EA050130BD0E
:106650005FEA4C0C404141EB0101013C28BFB1F520
:10666000801FE9D291F0000F04BF01460020B1FA6B
:1066700081F308BF2033A3F10B03B3F120020CDA3E
:106680000C3208DD02F1140CC2F10C0201FA0CF01C
:1066900021FA02F10CE002F11402D8BFC2F1200C81
:1066A00001FA02F120FA0CFCDCBF41EA0C01904037
:1066B000E41AA2BF01EB0451294330BD6FEA040480
:1066C0001F3C1CDA0C340EDC04F11404C4F120026B
:1066D00020FA04F001FA02F340EA030021FA04F37D
:1066E00045EA030130BDC4F10C04C4F1200220FAD4
:1066F00002F001FA04F340EA0300294630BD21FA12
:1067000004F0294630BD94F0000F83F4801306BFD7
:1067100081F480110134013D4EE77FEA645C18BFCB
:106720007FEA655C29D094EA050F08BF90EA020F62
:1067300005D054EA000C04BF1946104630BD91EA5A
:10674000030F1EBF0021002030BD5FEA545C05D15D
:106750004000494128BF41F0004130BD14F580049C
:106760003CBF01F5801130BD01F0004545F0FE4110
:1067700041F470014FF0000030BD7FEA645C1ABF45
:10678000194610467FEA655C1CBF0B46024650EA7C
:10679000013406BF52EA033591EA030F41F40021A8
:1067A00030BD00BF90F0000F04BF0021704730B52E
:1067B0004FF4806404F132044FF000054FF0000103
:1067C00050E700BF90F0000F04BF0021704730B5C4
:1067D0004FF4806404F1320410F0004548BF404299
:1067E0004FF000013EE700BF42004FEAE2014FEAEE
:1067F00031014FEA02701FBF12F07F4393F07F4FC9
:1068000081F06051704732F07F4208BF704793F0CB
:106810007F4F04BF41F40021704730B54FF46074DE
:1068200001F0004521F000411CE700BF50EA0102E1
:1068300008BF704730B54FF000050AE050EA01028A
:1068400008BF704730B511F0004502D5404261EBFA
:1068500041014FF4806404F132045FEA915C3FF43B
:10686000D8AE4FF003025FEADC0C18BF03325FEAD8
:10687000DC0C18BF033202EBDC02C2F1200300FA89
:1068800003FC20FA02F001FA03FE40EA0E0021FAAE
:1068900002F11444BDE600BF70B54FF0FF0C4CF49C
:1068A000E06C1CEA11541DBF1CEA135594EA0C0F4E
:1068B00095EA0C0F00F0DEF82C4481EA030621EA89
:1068C0004C5123EA4C5350EA013518BF52EA0335C4
:1068D00041F4801143F4801338D0A0FB02CE4FF076
:1068E0000005E1FB02E506F00042E0FB03E54FF0A6
:1068F0000006E1FB03569CF0000F18BF4EF0010E9E
:10690000A4F1FF04B6F5007F64F5407404D25FEA99
:106910004E0E6D4146EB060642EAC62141EA55514C
:106920004FEAC52040EA5E504FEACE2EB4F1FD0C8E
:1069300088BFBCF5E06F1ED8BEF1004F08BF5FEA0C
:10694000500E50F1000041EB045170BD06F00046BE
:1069500046EA010140EA020081EA0301B4EB5C046B
:10696000C2BFD4EB0C0541EA045170BD41F4801163
:106970004FF0000E013C00F3AB8014F1360FDEBF88
:10698000002001F0004170BDC4F10004203C35DA64
:106990000C341BDC04F11404C4F1200500FA05F3E7
:1069A00020FA04F001FA05F240EA020001F0004288
:1069B00021F0004110EBD37021FA04F642EB0601FE
:1069C0005EEA430E08BF20EAD37070BDC4F10C0428
:1069D000C4F1200500FA04F320FA05F001FA04F2EC
:1069E00040EA020001F0004110EBD37041F10001D8
:1069F0005EEA430E08BF20EAD37070BDC4F12005E3
:106A000000FA05F24EEA020E20FA04F301FA05F24A
:106A100043EA020321FA04F001F0004121FA04F2F2
:106A200020EA020000EBD3705EEA430E08BF20EAC2
:106A3000D37070BD94F0000F0FD101F000464000FC
:106A400041EB010111F4801F08BF013CF7D041EA7E
:106A5000060195F0000F18BF704703F00046520082
:106A600043EB030313F4801F08BF013DF7D043EA53
:106A70000603704794EA0C0F0CEA135518BF95EA09
:106A80000C0F0CD050EA410618BF52EA4306D1D190
:106A900081EA030101F000414FF0000070BD50EAAF
:106AA000410606BF1046194652EA430619D094EA39
:106AB0000C0F02D150EA013613D195EA0C0F05D123
:106AC00052EA03361CBF104619460AD181EA030177
:106AD00001F0004141F0FE4141F470014FF000002F
:106AE00070BD41F0FE4141F4780170BD70B54FF0CA
:106AF000FF0C4CF4E06C1CEA11541DBF1CEA13554A
:106B000094EA0C0F95EA0C0F00F0A7F8A4EB05042B
:106B100081EA030E52EA03354FEA013100F0888022
:106B20004FEA03334FF0805545EA131343EA1263EB
:106B30004FEA022245EA111545EA10654FEA0026A0
:106B40000EF000419D4208BF964244F1FD0404F559
:106B5000407402D25B084FEA3202B61A65EB0305B5
:106B60005B084FEA32024FF480104FF4002CB6EB72
:106B7000020E75EB030E22BFB61A754640EA0C00F2
:106B80005B084FEA3202B6EB020E75EB030E22BF32
:106B9000B61A754640EA5C005B084FEA3202B6EB73
:106BA000020E75EB030E22BFB61A754640EA9C0032
:106BB0005B084FEA3202B6EB020E75EB030E22BF02
:106BC000B61A754640EADC0055EA060E18D04FEAC0
:106BD000051545EA16754FEA06164FEAC30343EA60
:106BE00052734FEAC2025FEA1C1CC0D111F4801F2D
:106BF0000BD141EA00014FF000004FF0004CB6E726
:106C000011F4801F04BF01430020B4F1FD0C88BFC4
:106C1000BCF5E06F3FF6AFAEB5EB030C04BFB6EBCF
:106C2000020C5FEA500C50F1000041EB045170BDC2
:106C30000EF0004E4EEA113114EB5C04C2BFD4EBEF
:106C40000C0541EA045170BD41F480114FF0000E73
:106C5000013C90E645EA060E8DE60CEA135594EAEF
:106C60000C0F08BF95EA0C0F3FF43BAF94EA0C0FF2
:106C70000AD150EA01347FF434AF95EA0C0F7FF467
:106C800025AF104619462CE795EA0C0F06D152EABB
:106C900003353FF4FDAE1046194622E750EA41069F
:106CA00018BF52EA43067FF4C5AE50EA41047FF4B0
:106CB0000DAF52EA43057FF4EBAE12E74FF0FF3C15
:106CC00006E000BF4FF0010C02E000BF4FF0010CE6
:106CD0004DF804CD4FEA410C7FEA6C5C4FEA430C5F
:106CE00018BF7FEA6C5C1BD001B050EA410C0CBFAE
:106CF00052EA430C91EA030F02BF90EA020F002010
:106D0000704710F1000F91EA030F58BF994208BF76
:106D100090422CBFD8176FEAE37040F00100704733
:106D20004FEA410C7FEA6C5C02D150EA013C07D18A
:106D30004FEA430C7FEA6C5CD6D152EA033CD3D0D5
:106D40005DF8040B704700BF8446104662468C46CF
:106D50001946634600E000BF01B5FFF7B7FF002802
:106D600048BF10F1000F01BD4DF808EDFFF7F4FF2B
:106D70000CBF012000205DF808FB00BF4DF808EDB6
:106D8000FFF7EAFF34BF012000205DF808FB00BFD9
:106D90004DF808EDFFF7E0FF94BF012000205DF8FB
:106DA00008FB00BF4DF808EDFFF7CEFF94BF0120B0
:106DB00000205DF808FB00BF4DF808EDFFF7C4FFA9
:106DC00034BF012000205DF808FB00BF4A0011D24B
:106DD00012F5001211D20DD56FF47873B3EB625235
:106DE0000ED44FEAC12343F0004343EA505323FA41
:106DF00002F070474FF00000704750EA013002D1B6
:106E00004FF0FF3070474FF0000070474FEA4102EB
:106E1000B2F1E04324BFB3F5001CDCF1FE5C0DD9F8
:106E200001F0004C4FEAC0024CEA5070B2F1004F42
:106E300040EB830008BF20F00100704711F0804F45
:106E400021D113F13872BCBF01F00040704741F40A
:106E500080114FEA5252C2F11802C2F1200C10FA0E
:106E60000CF320FA02F018BF40F001004FEAC123F2
:106E70004FEAD32303FA0CFC40EA0C0023FA02F396
:106E80004FEA4303CCE77FEA625307D150EA01336C
:106E90001EBF4FF0FE4040F44000704701F000403C
:106EA00040F0FE4040F40000704700BF53B94AB9BB
:106EB000002908BF00281CBF4FF0FF314FF0FF3002
:106EC00000F08CB9ADF1080C6DE904CE00F024F8A7
:106ED000DDF804E0DDE9022304B07047D0B50C4BC7
:106EE000002206460F46FFF7D7FCFFF76FFF044668
:106EF000FFF758FC074B0022FFF7CEFC02460B467B
:106F000030463946FFF710FBFFF760FF2146D0BD42
:106F10000000F03D0000F0412DE9F047089D0446D7
:106F20008C46002B40F083808A42174647D9B2FA3C
:106F300082F242B1C2F1200024FA00F09140974061
:106F400040EA010C94404FEA1748230CBCFBF8F6CA
:106F50001FFA87FE08FB16C143EA014306FB0EF148
:106F6000994209D9FB1806F1FF3080F01981994246
:106F700040F21681023E3B445B1AA4B2B3FBF8F028
:106F800008FB103344EA034400FB0EFEA64509D972
:106F90003C1900F1FF3380F00581A64540F20281E3
:106FA00002383C4440EA0640A4EB0E0400261DB122
:106FB000D4400023C5E900433146BDE8F08702B95B
:106FC000FFDEB2FA82F2002A50D1CB1B4FEA174EF5
:106FD0001FFA87F80126B3FBFEFC210C0EFB1C33C5
:106FE00041EA034108FB0CF38B4207D979180CF1F5
:106FF000FF3002D28B4200F2E9808446C91AA3B264
:10700000B1FBFEF00EFB101143EA014408FB00F84F
:10701000A04507D93C1900F1FF3302D2A04500F288
:10702000D9801846A4EB080440EA0C40BFE78B4225
:1070300009D9002D00F0B1800026C5E900013046D5
:107040003146BDE8F087B3FA83F6002E4AD18B4271
:1070500002D3824200F2B880841A61EB030101205E
:107060008C46002DA8D0C5E9004CA5E7C2F120034D
:1070700020FA03F6974001FA02F04FEA174ED94082
:107080003043030CB1FBFEF61FFA87F80EFB161116
:1070900043EA014306FB08F1994204FA02F409D9D4
:1070A000FB1806F1FF3C80F08D80994240F28A8007
:1070B000023E3B445B1A81B2B3FBFEF00EFB103381
:1070C00041EA034100FB08F38B4207D9791800F12C
:1070D000FF3C73D28B4271D902383944CB1A40EA53
:1070E000064678E7C6F1200C03FA06F422FA0CF300
:1070F0001C4320FA0CF701FA06F34FEA144E21FA6A
:107100000CF11F433B0CB1FBFEF91FFA84F80EFB98
:10711000191143EA014109FB08FA8A4502FA06F20D
:1071200000FA06F308D9611809F1FF3048D28A4500
:1071300046D9A9F102092144A1EB0A01BFB2B1FB72
:10714000FEF00EFB101147EA014700FB08F8B845B6
:1071500007D9E71900F1FF312ED2B8452CD90238F2
:10716000274440EA0940A7EB0807A0FB02894F45E6
:10717000C64649461AD317D05DB1B3EB0E0267EB92
:10718000010707FA0CFCF2404CEA0202F740C5E99D
:10719000002700263146BDE8F0872E4628460BE73B
:1071A0000646E9E61846FDE64345E5D2B8EB020E91
:1071B00069EB04010138DFE70846D2E760468DE756
:1071C0008146B9E7664675E730464AE7ACF1020CFE
:1071D000394413E702383C4424E700BF704700BF3E
:1071E0000A22002100F00AB910B5054C13462CB153
:1071F0000A4601460220AFF3008010BD2046FCE79E
:10720000000000000A44914200F1FF3300D17047B2
:1072100010B511F8014B03F8014F9142F9D110BD9F
:10722000884210B501EB020402D98442234607D8F4
:10723000431EA14208D011F8012B03F8012FF8E7F3
:10724000024401468A4200D110BD13F8014D02F8F4
:10725000014DF7E702440346934200D1704703F81B
:10726000011BF9E738B50D4B1D68AB6B04467BB9C4
:107270001820FDF735FF0A4A0A4BA863C0E900232E
:10728000094B83600B23838101220023C0E904237F
:10729000AB6B00221C615A6138BD00BFE8E40320DB
:1072A0000E33CDAB34126DE6ECDE0500034611F86B
:1072B000012B03F8012B002AF9D17047024B01463C
:1072C000186800F003B800BFE8E4032037B50446AF
:1072D00008460D4600F00FF8421C11462046019268
:1072E000FDF71EFF044618B1019A2946FFF78AFFF1
:1072F000204603B030BD034613F8012B002AFBD112
:10730000181A0138704700002DE9F0473A4E8646BA
:107310008C4660461CF8014BA55D15F00805F8D1B8
:107320002D2C33D19CF800404FF0010800F1020CE5
:10733000002B5CD0102B0CD1302C0AD19CF8000013
:1073400000F0DF0058284DD19CF8014010230CF1CB
:10735000020C08F10047013F0026B7FBF3F9304665
:1073600003FB197AA4F13005092D18D82C46A34245
:1073700024DD751C07D081451DD301D1A2451ADB40
:1073800000FB034001261CF8014BEBE72B2C08BF48
:107390009CF80040A84608BF00F1020CC8E7A4F121
:1073A0004105192D01D8373CE1E7A4F16105192DFC
:1073B00004D8573CDBE74FF0FF36E4E7731C06D1F7
:1073C0002223CEF80030384642B9BDE8F087B8F144
:1073D000000F00D04042002AF7D00EB10CF1FF316F
:1073E0001160F2E73024002BB3D10823B1E7302C31
:1073F000A4D00A23ADE700BFB6760D0013460A46B7
:10740000014602480068FFF77FBF00BFE8E40320A1
:1074100021400D005D400D0085400D0089400D00AC
:10742000000000005374616E64696E672062792EFB
:107430002E2E0022626561636F6E4944223A312C20
:1074400000226D6F6973747572654C6576656C2288
:107450003A002267656F4C6174223A002267656FBB
:107460004C6F6E67223A002264697374616E6365C3
:1074700054726176656C6564223A007B007D00631E
:10748000616E6E6F742063726561746520737464DD
:107490003A3A6465717565206C6172676572207433
:1074A00068616E206D61785F73697A652829004E86
:1074B0006F20696E7465726E657420636F6E656EA1
:1074C0006374696F6E2C20736176696E67206461E6
:1074D0007461206C6F63616C6C792E2E2E00507578
:1074E000626C697368696E67206C6F63616C20649D
:1074F0006174613A2E2E2E006765746461746100B8
:107500004D6F697374757265204D6F646521004914
:107510006E2D7472616E73697421004750524D4331
:1075200000475047474100000000000000000000F5
:107530009F510D0095510D008B510D0081510D0093
:1075400075510D0069510D002D620D0035620D0061
:107550005D510D0055510D004B510D0041510D0075
:1075600065620D006170700025592D256D2D256413
:107570005425483A254D3A2553257A0061736374A2
:10758000696D6500000000000000000071580D00EA
:1075900077580D00B5580D0085580D0073580D0033
:1075A0000000000000000000B95D0D00A95D0D00A5
:1075B000AB5D0D000000000000000000995E0D00B2
:1075C000015F0D00D75E0D0021560D00C95E0D0054
:1075D0009B5E0D00AB5E0D00FB5E0D00BB5E0D0003
:1075E000955E0D00000000000000000003600D002B
:1075F000F95F0D00EF5F0D00A55F0D00E35F0D006B
:10760000D75F0D002D620D0035620D00CB5F0D00C0
:10761000C35F0D00B95F0D00AF5F0D0065620D0027
:1076200000000000000000003D600D00A9600D009A
:1076300081600D0021560D0051600D006D600D0040
:107640005F600D007B600D003F600D0043600D002A
:10765000000000000000000071610D00BB610D0022
:1076600093610D0073610D009B610D00A3610D001E
:10767000AB610D00B3610D000000000000000000D0
:10768000ED610D00F7610D0001620D000B620D0050
:1076900015620D0021620D002D620D0035620D0096
:1076A0003D620D0049620D0051620D005B620D00EC
:1076B00065620D00000020202020202020202028AE
:1076C000282828282020202020202020202020209A
:1076D00020202020202088101010101010101010D2
:1076E0001010101010100404040404040404040412
:1076F0001010101010101041414141414101010191
:107700000101010101010101010101010101010169
:107710000110101010101042424242424202020276
:107720000202020202020202020202020202020239
:1077300002101010102000000000000000000000E7
:107740000000000000000000000000000000000039
:107750000000000000000000000000000000000029
:107760000000000000000000000000000000000019
:107770000000000000000000000000000000000009
:1077800000000000000000000000000000000000F9
:1077900000000000000000000000000000000000E9
:1077A00000000000000000000000000000000000D9
:1077B000000000000000000009480D00A9510D0064
:1077C000F1510D00F9550D00E9560D00F9560D0067
:1077D00031570D000D600D0045630D0000000000E5
:0877E00038F7FF7F01000000F3
:0477E800000000009D
:1077EC000700000002000000130000000800000069
:1077FC00030000007C750D0068750D00ECE403209F
:10780C00000000000000000000000000000000006C
:10781C00000000000000000000000000000000005C
:10782C00000000000000000000000000000000004C
:10783C00000000000000000000000000000000003C
:10784C00000000000000000000000000000000002C
:10785C00000000000000000000000000000000001C
:10786C00FFFFFFFF00000102030405060708090AD9
:10787C000B0C0D0E0F101112131415161718191AD4
:08788C001B1C1D1E1F2028001B
:0478940078563412DC
:04000003D0004020C9
:00000001FF
